:040000007DEF00F0A0
:08000800046ED8CF05F0E0CF33
:1000100006F00001E9CF0CF0EACF07F0E1CF08F0DD
:10002000E2CF09F0D9CF0AF0DACF0BF0F3CF12F01C
:10003000F4CF13F0FACF14F000C00EF001C00FF0AF
:1000400002C010F003C011F0F2AA2AEF00F0F2B4DF
:1000500059EF00F09DAA30EF00F09EBA51EF00F08A
:100060000EC000F00FC001F010C002F011C003F08C
:100070000CC0E9FF07C0EAFF078E08C0E1FF09C016
:10008000E2FF0AC0D9FF0BC0DAFF12C0F3FF13C0B2
:10009000F4FF14C0FAFF045006C0E0FF05C0D8FF0B
:1000A00010009EAAFED7AECF1DF01C6A9E9A30EFBC
:1000B00000F03C0ED76EB00ED66E1E2AF29430EFD2
:1000C00000F0780058007900590069004900640088
:1000D0004400EA6A230EE96EEF500EE00C0E016E4A
:1000E000006A002EFED7012EFBD7F70E006E002E01
:1000F000FED700D0EF2EF2D71200F86AD09E078EFE
:100100001C6AB886110EAF6E040EB06EA60EAC6EF1
:10011000900EAB6E1E6A1F6AC150C00B0F09C16EF4
:10012000070EB46E166A176A800ED56E840ED76EEF
:10013000800ED66EF28AC00EF212926A896A936AB3
:100140008A6A956A8C6A1C52D8A448D1000E026E45
:10015000000E016EC20E006E036A00501D5C06E1C7
:10016000015204E1025202E1035210E0000E026E5D
:10017000000E016EC40E006E036A00501D5C54E157
:10018000015252E1025250E103524EE11F2A1F2C4C
:1001900017D0216A400E206E215203E12050000842
:1001A0000EE2926A20C089FF020E226EFA0E236EC2
:1001B00090DF222EFBD7D89021322032EDD734D0D9
:1001C0001F50020817E1216A800E206E215203E1C0
:1001D000205000080EE2936A20C08AFF020E226EB1
:1001E000FA0E236E76DF222EFBD7D89021322032F2
:1001F000EDD71AD01F50030817E1216A800E206E38
:10020000215203E1205000080EE2956A20C08CFFC5
:10021000020E226EFA0E236E5CDF222EFBD7D890E0
:1002200021322032EDD71F6A000E026E000E016EE1
:10023000C60E006E036A00501D5C06E1015204E127
:10024000025202E1035210E0000E026E000E016E37
:10025000C80E006E036A00501D5C54E1015252E169
:10026000025250E103524EE11F2A1F2C17D0216A7F
:10027000400E206E215203E1205000080EE2956AE4
:1002800020C08CFF020E226EFA0E236E22DF222E79
:10029000FBD7D89021322032EDD734D01F5002083E
:1002A00017E1216A800E206E215203E120500008E0
:1002B0000EE2936A20C08AFF020E226EFA0E236EAF
:1002C00008DF222EFBD7D89021322032EDD71AD06A
:1002D0001F50030817E1216A800E206E215203E1AE
:1002E000205000080EE2926A20C089FF020E226EA2
:1002F000FA0E236EEEDE222EFBD7D890213220326A
:10030000EDD71F6A000E026E000E016ECA0E006E5F
:10031000036A00501D5C06E1015204E1025202E151
:10032000035210E0000E026E000E016ECC0E006E45
:10033000036A00501D5C1CE101521AE1025218E1EF
:10034000035216E1216A800E206E215203E12050F3
:1003500000080EE2936A20C08AFF020E226EFA0E97
:10036000236EB7DE222EFBD7D89021322032EDD774
:10037000000E026E000E016ECE0E006E036A00507B
:100380001D5C06E1015204E1025202E1035210E059
:10039000000E026E000E016ED00E006E036A005059
:1003A0001D5C1CE101521AE1025218E1035216E1F0
:1003B000216A010E206E215211E1205080080EE3C7
:1003C000956A20C08CFF020E226EFA0E236E81DE2B
:1003D000222EFBD7D89020362136EDD7B4D6030095
:020000040030CA
:0E0000000002181E000581000FC00FE00F4027
:00000001FF
;PIC18F4620
;CRC=3816  CREATED="12-jun.-19 14:11"
